S0110000636F6E7665727465722E737265633B
S11300000C942A000C9447000C9447000C9447006D
S11300100C9447000C9447000C9447000C94470040
S11300200C9447000C9447000C9447000C94470030
S11300300C9447000C9447000C9447000C94470020
S11300400C9447000C9447000C9447000C94470010
S11300500C94470011241FBECFE5D8E0DEBFCDBF0E
S113006011E0A0E6B0E0E8E2F2E102C005900D92F2
S1130070AC34B107D9F721E0ACE4B1E001C01D9282
S1130080AC37B207E1F70E9411070C9412090C94E3
S113009000008A30D0F4282F30E0F901EE0FFF1F62
S11300A0EE0FFF1FEC5AFE4F408151816281738134
S11300B0220F331F220F331FF901E45BFE4F4083ED
S11300C05183628373838F5FE4CF0895CF92DF926D
S11300D0EF92FF920F931F93CF93DF930E94EE054D
S11300E061E081E00E94E8068FE890E00E94D50676
S11300F00E94C404182F00E01D3309F482C00E943A
S1130100C404182F80ED810F8A3008F05DC0812F60
S11301100E94F805C12FD0E001110FC0E097CE0175
S1130120DD0FAA0BBB0B80934C0190934D01A09360
S11301304E01B0934F0101E0DFCF802F90E0FC012E
S1130140EE0FFF1FEE0FFF1FE85BFE4F2081318192
S11301504281538169017A01E894C1F86DE2C616BF
S1130160D104E104F10469F069017A01AAE2CA1A2E
S1130170D108E108F108B2E0CB16D104E104F1049E
S113018068F4880F991F880F991FFC01E45BFE4FE8
S1130190E097CE01DD0FAA0BBB0B2BC0AAE0B0E0A9
S11301A00E94F8089E01205331096901330FEE08BB
S11301B0FF08DC01CB018C0D9D1DAE1DBF1D80838E
S11301C09183A283B3831AC0812F8D7F8D3221F056
S11301D086ED810F823090F4812F0E94F80564E04F
S11301E0069FF0011124E45BFE4F812F90E0A0E014
S11301F0B0E080839183A283B3830F5F0C3008F453
S11302007BCFC0E08C2F90E0FC01EE0FFF1FEE0FC0
S1130210FF1FE45BFE4F40815181628173814A324A
S1130220510561057105F9F48C01000F111F000FD0
S1130230111F085B1E4F880F991F880F991FFC011F
S1130240E05BFE4F2081318142815381D8016D9161
S11302507D918D919C910E94A708F8016083718320
S11302608283938323C04F3251056105710511F5D3
S11302708C01000F111F000F111F085B1E4F880F08
S1130280991F880F991FFC01E05BFE4FD8016D9107
S11302907D918D919C9120813181428153810E9475
S11302A0B708F80120833183428353838C2F0E9443
S11302B04900C0E0CF5FCC3009F0A4CF80E0282F04
S11302C030E0F901EE0FFF1FEE0FFF1FE45BFE4F5E
S11302D040815181628173814B3251056105710501
S11302E0E1F4D901AA0FBB1FAA0FBB1FA85BBE4F25
S11302F0220F331F220F331FF901E05BFE4F0081F1
S11303001181228133814D915D916D917C9113977F
S1130310400F511F621F731F20C04D3251056105EC
S1130320710519F5D901AA0FBB1FAA0FBB1FA85B42
S1130330BE4F220F331F220F331FF901E05BFE4F24
S11303404D915D916D917C91139700811181228172
S11303503381401B510B620B730B4D935D936D9373
S11303607C9313970E94490080E08F5F8C3008F4DF
S1130370A6CFC0904C01D0904D01E0904E01F0907A
S11303804F0161E082E00E94E80684E990E00E9467
S1130390D506C701B6010E94FA050E94C40484353B
S11303A0E1F3DF91CF911F910F91FF90EF90DF90D8
S11303B0CF90089561E081E00E94E8068FE890E024
S11303C00E94D50661E082E00E94E8068CE990E094
S11303D00E94D50665E081E00C94E806CF93C82F0F
S11303E00E9478048435E1F38C17D0F3C0EDC80F74
S11303F06C2F70E080E090E00E94FA052FEF89E610
S113040098E1215080409040E1F700C000008C2F1B
S1130410CF910895CF92DF92EF92FF92CF93DF9323
S1130420D82F0E947804C82FC12CD12C7601CD334B
S1130430E9F00E947804C82F8033C8F3D817B8F3C2
S11304400E94F805AAE0B0E0A70196010E94F8080E
S1130450CC2ED12C20E3C21AD1080D2C000CEE08AE
S1130460FF08C60ED71EE81EF91EE1CFC701B6016C
S1130470DF91CF91FF90EF90DF90CF9008954F924E
S11304805F926F927F928F929F92AF92BF92CF9220
S1130490DF92EF92FF92CF934B015C01C0E0C12C3D
S11304A0D12C760181149104A104B10461F1C50138
S11304B0B4012AE030E040E050E00E94B70849016E
S11304C05A019B01AC01CC2381F080E0412C512CDA
S11304D032014394440C551C661C771C8F5FC8136F
S11304E0F9CFF42DE52DC30104C0F1E0E0E080E094
S11304F090E06F2F7E2F0E94A708C60ED71EE81E1D
S1130500F91ECF5FCFCFC701B601CF91FF90EF9017
S1130510DF90CF90BF90AF909F908F907F906F901F
S11305205F904F9008958F929F92AF92BF92CF9217
S1130530DF92EF92FF921F93CF93DF93CDB7DEB795
S113054028970FB6F894DEBF0FBECDBF0E94780483
S1130550182FC12CD12C76011D33D9F00E947804B8
S1130560182F8D33B1F08435C9F30E94F805E1E00A
S1130570F0E0EC0FFD1FEC0DFD1D10838FEFC81A8A
S1130580D80AE80AF80A89E0C816D104E104F1049B
S113059018F3EFEFEC0DF0E0C12CD12C7601EF3F16
S11305A009F44BC0A1E0B0E0AC0FBD1FAE0FB11D0C
S11305B02C918FEB820F30E08630C0F42753310941
S11305C0032E000C440B550BFF2351F180E0812CCA
S11305D0912C5401839474E0880C991CAA1CBB1CB4
S11305E07A95D1F78F5F8F13F6CF17C02053310957
S11305F0032E000C440B550BFF2391F080E0812C5B
S1130600912C5401839494E0880C991CAA1CBB1C63
S11306109A95D1F78F5FF813F6CFB401C50104C0E2
S113062061E070E080E090E00E94A708C60ED71E4B
S1130630E81EF91EE150FF5FB2CFC701B60128964C
S11306400FB6F894DEBF0FBECDBFDF91CF911F91DF
S1130650FF90EF90DF90CF90BF90AF909F908F90DE
S11306600895CF92DF92EF92FF92CF930E94EE050E
S113067061E081E00E94E80681EA90E00E94D506EC
S113068061E082E00E94E8068FEA90E00E94D506CD
S11306906EE081E00E94E80683E00E94EE01C82F2C
S11306A00E94EE0561E081E00E94E8068FEB90E095
S11306B00E94D50661E082E00E94E8062C2F30E01B
S11306C0215031094DE0429FC001439F900D1124F8
S11306D0805A9F4F0E94D5066CE081E00E94E80694
S11306E0C230D9F1C33009F46BC0C13009F09FC0E6
S11306F082E00E94EE018130A9F0823009F097C0B7
S11307000E94EE050E94DA0189E30E940A026B014D
S11307107C0165E082E00E94E806C701B6010E9400
S1130720690616C00E94EE050E94DA0189E30E9460
S11307300A026B017C0165E082E00E94E806C701C1
S1130740B6010E94A4060E9478048435E1F36FC0C8
S11307500E9478048435E1F36AC082E00E94EE01CD
S11307608130A1F0823009F062C00E94EE050E943F
S1130770DA010E9493026B017C0165E082E00E9431
S1130780E806C701B6010E94690615C00E94EE057D
S11307900E94DA010E9493026B017C0165E082E011
S11307A00E94E806C701B6010E94FA050E94780477
S11307B08435E1F33CC00E9478048435E1F337C00A
S11307C082E00E94EE018130B1F0823081F50E9416
S11307D0EE050E94DA0181E30E940A020E943F02B0
S11307E06B017C0165E082E00E94E806C701B60166
S11307F00E94A40618C00E94EE050E94DA0181E35B
S11308000E940A020E943F026B017C0165E082E0C3
S11308100E94E806C701B6010E94FA050E94780406
S11308208435E1F304C00E9478048435E1F3CF9168
S1130830FF90EF90DF90CF900895CF930E94EE0544
S11308408BEC90E00E94D506C1E06C2F82E00E9400
S1130850E80680E090E00E94D5062FE789EA93E05D
S1130860215080409040E1F700C00000CF5FC031CC
S113087061F70E94EE0561E081E0CF910C94E806F7
S11308808BED90E00E94D5062FEF89E698E1215088
S113089080409040E1F700C000000E94EE0561E056
S11308A081E00E94E8068BEE90E00E94D50661E0AC
S11308B082E00E94E80687EF90E00E94D5060E943D
S11308C07804813321F08233D1F782E0089581E006
S11308D00895CF93DF93C8E0D1E061E089910E944D
S11308E0010881E0CC30D807C1F7DF91CF9108959A
S11308F09F92AF92BF92CF92DF92EF92FF920F93AB
S11309001F93CF93DF9398E0C92E91E0D92ECCE1C9
S1130910D1E024E5F22EF601E1906F0160E08E2D26
S11309200E94010884E0A82E81E0B82E00E010E0C7
S1130930F50191905F01892D0E948A08811109C0F7
S1130940FE01E00FF11FF080892D0E948A088823A0
S1130950D9F30F5F1F4F0430110551F761E08E2D5D
S11309600E9401082496F1E0CC32DF07A1F68F2D16
S1130970DF91CF911F910F91FF90EF90DF90CF9077
S1130980BF90AF909F9008959F92AF92BF92CF92E5
S1130990DF92EF92FF920F931F93CF93DF9398E030
S11309A0C92E91E0D92ECCE0D1E024E5F22EF60157
S11309B0E1906F0160E08E2D0E94010884E0A82E72
S11309C081E0B82E00E010E0F50191905F01892DDF
S11309D00E948A08811109C0FE01E00FF11FF08016
S11309E0892D0E948A088823D9F30F5F1F4F043092
S11309F0110551F761E08E2D0E9401082496F1E063
S1130A00CC31DF07A1F68F2DDF91CF911F910F918C
S1130A10FF90EF90DF90CF90BF90AF909F9008959C
S1130A20CF93C82F60E081E00E9401086C2F661FFD
S1130A306627661F86E00E940108C6FB662760F9E8
S1130A4085E00E940108C5FB662760F984E00E94E6
S1130A500108C4FB662760F983E00E94010861E095
S1130A6082E00E9401088FEC97E00197F1F700C043
S1130A70000060E082E00E9401088FEC97E001979B
S1130A80F1F700C00000C3FB662760F986E00E940E
S1130A900108C2FB662760F985E00E940108C1FBDA
S1130AA0662760F984E00E9401086C2F617083E07E
S1130AB00E94010861E082E00E9401088FEC97E047
S1130AC00197F1F700C0000060E082E00E94010895
S1130AD08FEC97E00197F1F700C00000CF910895E3
S1130AE0CF93C82F61E081E00E9401086C2F661F3C
S1130AF06627661F86E00E940108C6FB662760F928
S1130B0085E00E940108C5FB662760F984E00E9425
S1130B100108C4FB662760F983E00E94010861E0D4
S1130B2082E00E9401088FEC97E00197F1F700C082
S1130B30000060E082E00E9401088FEC97E00197DA
S1130B40F1F700C00000C3FB662760F986E00E944D
S1130B500108C2FB662760F985E00E940108C1FB19
S1130B60662760F984E00E9401086C2F617083E0BD
S1130B700E94010861E082E00E9401088FEC97E086
S1130B800197F1F700C0000060E082E00E940108D4
S1130B908FEC97E00197F1F700C00000CF91089522
S1130BA02FE788E391E0215080409040E1F700C0B6
S1130BB0000082E00E94100588E20E9410058FE088
S1130BC00E94100581E00E9410058FEC97E00197C8
S1130BD0F1F700C0000086E00C94100581E00E944B
S1130BE010058FEC97E00197F1F700C0000008951D
S1130BF00C9470054F925F926F927F92AF92BF9266
S1130C00CF92DF92EF92FF921F93CF93DF93CDB7F2
S1130C10DEB72B970FB6F894DEBF0FBECDBF6B01C6
S1130C207C01611571058105910529F480E30E9419
S1130C30700510E02BC097FF0BC08DE20E94700579
S1130C40F094E094D094C094C11CD11CE11CF11C1C
S1130C5010E09AE0492E512C612C712CAA24A39403
S1130C60B12CAC0EBD1EA10EB11CC701B601A3016F
S1130C7092010E94D908605DF501608369017A01DF
S1130C801F5FC114D104E104F10441F7115017FDB1
S1130C900CC0E1E0F0E0EC0FFD1FE10FF11D17FDCA
S1130CA0FA9580810E947005F1CF2B960FB6F894C7
S1130CB0DEBF0FBECDBFDF91CF911F91FF90EF90AC
S1130CC0DF90CF90BF90AF907F906F905F904F90E8
S1130CD00895BF92CF92DF92EF92FF920F931F93EA
S1130CE0CF93DF936B017C01CFE1D0E0B12C01E025
S1130CF010E0C8010C2E02C0880F991F0A94E2F775
S1130D00092E000CAA0BBB0B8C219D21AE21BF2107
S1130D10892B8A2B8B2B31F081E30E947005BB2435
S1130D20B39406C081E0B81203C080E30E9470054A
S1130D302197F8F6DF91CF911F910F91FF90EF90DB
S1130D40DF90CF90BF900895CF92DF92EF92FF9201
S1130D50CF93DF936B017C01D0E0CCE1D701C601D6
S1130D600C2E04C0B695A795979587950A94D2F74B
S1130D708F708A3010F0895C03C0882329F0805D6D
S1130D800E947005D1E007C0D13021F480E30E94B5
S1130D90700501C0D0E0C450CC3F01F7DF91CF9182
S1130DA0FF90EF90DF90CF9008950F931F93CF9310
S1130DB08C01C0E0F801EC0FF11D8081882321F043
S1130DC00E947005CF5FF6CFCF911F910F910895C8
S1130DD0813021F48FEF860F806805C0823029F4BA
S1130DE08FEF860F806C0C94100508950F931F935A
S1130DF0CF93DF938B01880F880F880F805C0E944C
S1130E001005E801085F1F4F89910E947005C01703
S1130E10D107D1F780E8DF91CF911F910F910C9406
S1130E201005CF93DF93CDB7DEB728970FB6F894AC
S1130E30DEBF0FBECDBF0E943E070E94D0050E94B8
S1130E40690488E0E7E8F0E0DE01119601900D9274
S1130E508A95E1F7BE016F5F7F4F80E00E94F6063E
S1130E600E941D040E94EE050E944004813019F482
S1130E700E943103F7CF0E946600F4CFECE2F1E068
S1130E8040E081E090E03191242F2770542F569553
S1130E9056955695523009F45BC0533009F483C01B
S1130EA0513059F13130F1F098F0323009F0A4C0EA
S1130EB05AB3BC0102C0660F771F2A95E2F79B0163
S1130EC0362F309535233ABB3BB3232B2BBB94C031
S1130ED05AB3BC0102C0660F771F2A95E2F79B0143
S1130EE0252B09C03AB3BC0101C0660F2A95EAF765
S1130EF0262F209523232ABB7FC03130F1F098F0B0
S1130F00323009F079C057B3BC0102C0660F771FB5
S1130F102A95E2F79B01362F3095352337BB38B33A
S1130F20232B28BB69C057B3BC0102C0660F771FCF
S1130F302A95E2F79B01252B09C037B3BC0101C0F8
S1130F40660F2A95EAF7262F2095232327BB54C042
S1130F503130F1F098F0323009F04EC054B3BC0196
S1130F6002C0660F771F2A95E2F79B01362F309552
S1130F70352334BB35B3232B25BB3EC054B3BC014E
S1130F8002C0660F771F2A95E2F79B01252B09C043
S1130F9034B3BC0101C0660F2A95EAF7262F2095C9
S1130FA0232324BB29C03130E9F090F0323021F5FD
S1130FB051B3BC0102C0660F771F2A95E2F79B016B
S1130FC0362F3095352331BB32B3232B22BB14C0CB
S1130FD051B3BC0102C0660F771F2A95E2F79B014B
S1130FE0252B09C031B3BC0101C0660F2A95EAF76D
S1130FF0262F2095232321BB4F5F403209F043CF96
S11310000895982F9770869586958695813039F145
S113101038F0823009F442C0833009F45DC0089589
S1131020662379F0613009F074C04BB321E030E0FD
S1131030B90102C0660F771F9A95E2F7CB01842BA2
S11310400CC04BB321E030E0B90102C0660F771F3A
S11310509A95E2F7CB01809584238BBB0895662390
S113106079F0613009F055C048B321E030E0B901AE
S113107002C0660F771F9A95E2F7CB01842B0CC050
S113108048B321E030E0B90102C0660F771F9A959A
S1131090E2F7CB018095842388BB0895662371F021
S11310A06130B9F545B321E030E0B90102C0660F03
S11310B0771F9A95E2F7CB01842B0CC045B321E04E
S11310C030E0B90102C0660F771F9A95E2F7CB01B1
S11310D08095842385BB0895662371F06130C9F43B
S11310E042B321E030E0B90102C0660F771F9A9540
S11310F0E2F7CB01842B0CC042B321E030E0B9010C
S113110002C0660F771F9A95E2F7CB01809584237E
S113111082BB0895282F2770869586958695813001
S113112049F030F0823041F0833079F480B305C067
S113113089B303C086B301C083B390E002C0959520
S113114087952A95E2F78170089580E00895DB0180
S11311508F939F930E94F808BF91AF91A29F800D37
S1131160911DA39F900DB29F900D11240895A1E2AB
S11311701A2EAA1BBB1BFD010DC0AA1FBB1FEE1F0D
S1131180FF1FA217B307E407F50720F0A21BB30B58
S1131190E40BF50B661F771F881F991F1A9469F7D4
S11311A060957095809590959B01AC01BD01CF0130
S11311B00895052E97FB1EF400940E94F00857FD35
S11311C007D00E94B70807FC03D04EF40C94F00833
S11311D050954095309521953F4F4F4F5F4F08955F
S11311E090958095709561957F4F8F4F9F4F08958F
S11311F00E940309A59F900DB49F900DA49F800D9C
S1131200911D11240895A29FB001B39FC001A39F13
S1131210700D811D1124911DB29F700D811D11242B
S10B1220911D0895F894FFCF1D
S113122848455820202020202042494E0044454368
S113123820202020202042494E00444543202020DD
S113124820202048455800FFFFFFFFFFFFFFFF490C
S11312582F503A00526573756C743A004F2F503A08
S113126800436F6E766572742066726F6D3A00443F
S1131278454320202048455820202042494E004319
S11312886F6E7665727420746F3A0020204F6D611A
S11312987220596173736572202000202053656C95
S11312A8656374206D6F6465202000312D436F6E73
S11312B876657274657200322D43616C63756C6176
S11312C8746F72001A1B1C1D0C0D0E0F3738392B46
S11312D83435362D3132332A43303D2F37383946A9
S11312E8343536453132334143303D420100000044
S11312F800000000000000000000000000000100E1
S10F1308000200000000020202020000CB
S903083ABA
