:100000000C942A000C94CE050C94F7050C94200651
:100010000C9447000C9447000C9447000C94470044
:100020000C9447000C9447000C9447000C94470034
:100030000C9447000C9447000C9447000C94470024
:100040000C9447000C9447000C9447000C94470014
:100050000C94470011241FBECFE5D8E0DEBFCDBF12
:1000600011E0A0E6B0E0ECEFFEE002C005900D92DA
:10007000A232B107D9F721E0A2E2B1E001C01D929E
:10008000AF32B207E1F70E947F030C947C070C9417
:1000900000008EE1809325018093240108950E9441
:1000A000450390912301E92FF0E0E659FF4F80834B
:1000B000993011F09F5F01C090E090932301EAE630
:1000C000F0E024E730E080E090E04191840F911D62
:1000D0002E173F07D1F76AE070E00E94180760937F
:1000E000250108950E942B0390912201E92FF0E051
:1000F000E05AFF4F8083993011F09F5F01C090E07C
:1001000090932201E0E6F0E02AE630E080E090E023
:100110004191840F911D2E173F07D1F76AE070E0DF
:100120000E94180760932401089580912501089585
:100130008091240108950F931F93CF93DF9380E064
:1001400090E00E94520605E710E0C1E0D0E0813067
:1001500099F0F80161918F01CE010E944A06219623
:10016000C530D105B1F761E085E090E0DF91CF9136
:100170001F910F910C944A06CE010E945206F8017D
:1001800081938F012196C530D105B1F7DF91CF91D1
:100190001F910F910895CF93DF930E944901C1E011
:1001A0000E944901D82F80ED8D0F8A3058F48AE2E1
:1001B0000E947D02EC2FF0E0EC58FF4F8081D813B5
:1001C0000CC0CF5FC53061F761E085E090E00E9430
:1001D0004A061092260181E001C080E0DF91CF91B4
:1001E00008950F931F93CF93DF930E944901C1E0BD
:1001F0000E944901D82F80ED8D0F8A3070F48AE279
:100200000E947D020C2F10E06D2FC8010E944A064B
:10021000F801EC58FF4FD083CF5FC53049F782E03B
:10022000DF91CF911F910F910895CF9361E081E00D
:100230000E94010381E890E00E94EE0261E082E00A
:100240000E940103C0E180E090E00E94EE02C150F4
:10025000D1F761E081E00E940103CF910C94730219
:10026000811116C060E088E00E94A8040E94730219
:1002700061E081E00E9401038FE890E00E94EE02BD
:1002800061E082E00E94010385E990E00C94EE02B7
:1002900008959F92AF92BF92CF92DF92EF92FF921A
:1002A0000F931F93CF93DF9390EAC92E90E0D92E3E
:1002B000C4EAD0E024E5F22EF601E1906F0160E09F
:1002C0008E2D0E94A8048CE9A82E80E0B82E00E0B4
:1002D00010E0F50191905F01892D0E943105811197
:1002E00009C0FE01E00FF11FF080892D0E94310549
:1002F0008823D9F30F5F1F4F0430110551F761E0D8
:100300008E2D0E94A8042496F0E0C43BDF07A1F6DE
:100310008F2DDF91CF911F910F91FF90EF90DF9084
:10032000CF90BF90AF909F900895CF93C82F60E07B
:1003300081E00E94A8046C2F661F6627661F86E076
:100340000E94A804C6FB662760F985E00E94A80405
:10035000C5FB662760F984E00E94A804C4FB6627F9
:1003600060F983E00E94A80461E082E00E94A80492
:100370008FEC97E00197F1F700C0000060E082E0A9
:100380000E94A8048FEC97E00197F1F700C00000ED
:10039000C3FB662760F986E00E94A804C2FB6627BB
:1003A00060F985E00E94A804C1FB662760F984E03B
:1003B0000E94A8046C2F617083E00E94A80461E091
:1003C00082E00E94A8048FEC97E00197F1F700C04B
:1003D000000060E082E00E94A8048FEC97E00197A3
:1003E000F1F700C00000CF910895CF93C82F61E0CE
:1003F00081E00E94A8046C2F661F6627661F86E0B6
:100400000E94A804C6FB662760F985E00E94A80444
:10041000C5FB662760F984E00E94A804C4FB662738
:1004200060F983E00E94A80461E082E00E94A804D1
:100430008FEC97E00197F1F700C0000060E082E0E8
:100440000E94A8048FEC97E00197F1F700C000002C
:10045000C3FB662760F986E00E94A804C2FB6627FA
:1004600060F985E00E94A804C1FB662760F984E07A
:100470000E94A8046C2F617083E00E94A80461E0D0
:1004800082E00E94A8048FEC97E00197F1F700C08A
:10049000000060E082E00E94A8048FEC97E00197E2
:1004A000F1F700C00000CF9108952FE788E391E0B5
:1004B000215080409040E1F700C0000082E00E949F
:1004C000950188E20E9495018CE00E94950181E0EF
:1004D0000E9495018FEC97E00197F1F700C00000B2
:1004E00086E00C94950181E00E9495018FEC97E0E5
:1004F0000197F1F700C0000008950C94F5014F92A8
:100500005F926F927F92AF92BF92CF92DF92EF9203
:10051000FF921F93CF93DF93CDB7DEB72B970FB624
:10052000F894DEBF0FBECDBF6B017C016115710574
:100530008105910529F480E30E94F50110E02BC0AC
:1005400097FF0BC08DE20E94F501F094E094D094E7
:10055000C094C11CD11CE11CF11C10E09AE0492E92
:10056000512C612C712CAA24A394B12CAC0EBD1E6D
:10057000A10EB11CC701B601A30192010E944E0752
:10058000605DF501608369017A011F5FC114D104C8
:10059000E104F10441F7115017FD0CC0E1E0F0E077
:1005A000EC0FFD1FE10FF11D17FDFA9580810E94F0
:1005B000F501F1CF2B960FB6F894DEBF0FBECDBF7D
:1005C000DF91CF911F91FF90EF90DF90CF90BF9080
:1005D000AF907F906F905F904F9008950F931F930F
:1005E000CF938C01C0E0F801EC0FF11D80818823CE
:1005F00021F00E94F501CF5FF6CFCF911F910F91AF
:100600000895813021F48FEF860F806805C0823015
:1006100029F48FEF860F806C0C94950108950F9349
:100620001F93CF93DF938B01880F880F880F805C17
:100630000E949501E801085F1F4F89910E94F50112
:10064000C017D107D1F780E8DF91CF911F910F91AB
:100650000C949501089580E00E94D7034AE09C0124
:10066000429FC001439F900D11249C012C513240A8
:10067000A9E1B0E00E946D0720EB33E040E050E0DC
:100680000E942C07822F0895089587E00E94D703C7
:100690009C01A2E3B0E00E946D0727E630E040E055
:1006A00050E00E942C07822F08950E94730261E09F
:1006B00081E00E94010384EB90E00E94EE020E9420
:1006C000CB008130D9F461E082E00E94010389EB24
:1006D00090E00E94EE020E94F1000E9473028EEBF5
:1006E00090E00E94EE022FE789EA93E021508040DB
:1006F0009040E1F700C000000C9473020895CF937E
:10070000DF93CDB7DEB728970FB6F894DEBF0FBEE4
:10071000CDBF78940E94E5030E9455020E944906CD
:1007200066E081E00E94C4030E942A030E94440301
:100730000E9449000E949B0085E00E944E0560E0F7
:1007400085E00E945F0560E085E00E94880565E520
:1007500073E085E00E94B80588E0E9E7F0E0DE019B
:10076000119601900D928A95E1F7BE016F5F7F4F60
:1007700080E00E940F030E941501809126010E94D3
:1007800030010E945906F9CF96B1987F96B996B17B
:10079000692B66B997B19F7397B927B130E4839FEE
:1007A000C0011124822B87B9379A3D98089597B1DB
:1007B000907E97B997B1892B87B9369A3699FECF33
:1007C00084B125B190E0922B0895EEECF0E040E08A
:1007D00081E090E03191242F2770542F5695569543
:1007E0005695523009F45BC0533009F483C0513040
:1007F00059F13130F1F098F0323009F0A4C05AB319
:10080000BC0102C0660F771F2A95E2F79B01362FC5
:10081000309535233ABB3BB3232B2BBB94C05AB343
:10082000BC0102C0660F771F2A95E2F79B01252BBA
:1008300009C03AB3BC0101C0660F2A95EAF7262F1A
:10084000209523232ABB7FC03130F1F098F032305D
:1008500009F079C057B3BC0102C0660F771F2A9513
:10086000E2F79B01362F3095352337BB38B3232B66
:1008700028BB69C057B3BC0102C0660F771F2A9519
:10088000E2F79B01252B09C037B3BC0101C0660FFD
:100890002A95EAF7262F2095232327BB54C0313011
:1008A000F1F098F0323009F04EC054B3BC0102C0F0
:1008B000660F771F2A95E2F79B01362F3095352377
:1008C00034BB35B3232B25BB3EC054B3BC0102C09F
:1008D000660F771F2A95E2F79B01252B09C034B3D9
:1008E000BC0101C0660F2A95EAF7262F2095232325
:1008F00024BB29C03130E9F090F0323021F551B3FA
:10090000BC0102C0660F771F2A95E2F79B01362FC4
:100910003095352331BB32B3232B22BB14C051B3E6
:10092000BC0102C0660F771F2A95E2F79B01252BB9
:1009300009C031B3BC0101C0660F2A95EAF7262F22
:100940002095232321BB4F5F403209F043CF089508
:10095000982F9770869586958695813039F138F075
:10096000823009F442C0833009F45DC008956623E3
:1009700079F0613009F074C04BB321E030E0B90187
:1009800002C0660F771F9A95E2F7CB01842B0CC04B
:100990004BB321E030E0B90102C0660F771F9A9592
:1009A000E2F7CB01809584238BBB0895662379F011
:1009B000613009F055C048B321E030E0B90102C010
:1009C000660F771F9A95E2F7CB01842B0CC048B3D2
:1009D00021E030E0B90102C0660F771F9A95E2F777
:1009E000CB018095842388BB0895662371F0613024
:1009F000B9F545B321E030E0B90102C0660F771FB9
:100A00009A95E2F7CB01842B0CC045B321E030E08E
:100A1000B90102C0660F771F9A95E2F7CB01809566
:100A2000842385BB0895662371F06130C9F442B315
:100A300021E030E0B90102C0660F771F9A95E2F716
:100A4000CB01842B0CC042B321E030E0B90102C0DD
:100A5000660F771F9A95E2F7CB018095842382BBBE
:100A60000895282F2770869586958695813049F0C0
:100A700030F0823041F0833079F480B305C089B31F
:100A800003C086B301C083B390E002C095958795FB
:100A90002A95E2F78170089580E008957894863071
:100AA00039F0873041F0853049F48BB7806205C05A
:100AB0008BB7806402C08BB780688BBF0895863087
:100AC00029F0873071F0853011F516C0662319F0D2
:100AD000613021F008958BB7806418C08BB78F7B8D
:100AE00015C0662319F0613021F008958BB7806836
:100AF0000DC08BB78F770AC0662319F0613021F0E3
:100B000008958BB7806202C08BB78F7D8BBF08952D
:100B1000863029F0873091F0853049F51DC0662375
:100B200019F0613021F0089585B7816002C085B762
:100B30008E7F85BF85B7826085BF0895662319F0D3
:100B4000613021F0089585B7846002C085B78B7F3E
:100B500085BF85B78860F0CF662319F0613021F03A
:100B6000089584B7806402C084B78F7B84BF0895E2
:100B7000863049F0873061F0853079F47093280130
:100B8000609327010AC070932C0160932B01089594
:100B900070932A0160932901089508951F920F927E
:100BA0000FB60F9211242F933F934F935F936F9340
:100BB0007F938F939F93AF93BF93EF93FF93E091B6
:100BC0002B01F0912C01309709F00995FF91EF91DD
:100BD000BF91AF919F918F917F916F915F914F9155
:100BE0003F912F910F900FBE0F901F9018951F925D
:100BF0000F920FB60F9211242F933F934F935F9351
:100C00006F937F938F939F93AF93BF93EF93FF93D4
:100C1000E0912901F0912A01309709F00995FF919F
:100C2000EF91BF91AF919F918F917F916F915F9164
:100C30004F913F912F910F900FBE0F901F901895DD
:100C40001F920F920FB60F9211242F933F934F9341
:100C50005F936F937F938F939F93AF93BF93EF9324
:100C6000FF93E0912701F0912801309709F0099551
:100C7000FF91EF91BF91AF919F918F917F916F9174
:100C80005F914F913F912F910F900FBE0F901F904A
:100C900018950895E199FECF9FBB8EBB6DBBE29A7C
:100CA000E19A0895E199FECF9FBB8EBBE09A8DB388
:100CB000089585E090E00E945206813009F075C0E9
:100CC000F894809326010E9472000E944F000E94B7
:100CD000950080932E01813340F569E081E00E9408
:100CE00001038EEE90E00E94EE0261E080E10E943E
:100CF000A80460E082E10E94A80460E081E10E9413
:100D0000A80466E081E00E94010360912E0170E07A
:100D100080E090E00E947F0267E082E00E94010391
:100D200087EF90E00E94EE0281C0833308F47FC019
:100D300060E080E10E94A80460E082E10E94A804D3
:100D400061E081E10E94A80466E081E00E94010365
:100D500060912E0170E080E090E00E947F020E948E
:100D6000980080932D0169E081E00E9401038CEFDF
:100D700090E00E94EE0260912D0170E080E090E032
:100D80000E947F0267E082E00E94010383E091E01D
:100D90000E94EE0280912D01833308F447C060E089
:100DA00085E090E00E944A062EC0F89460E080E161
:100DB0000E94A80461E082E10E94A80460E081E151
:100DC0000E94A80461E088E00E94A80461E081E03C
:100DD0000E94010388E091E00E94EE020E94CB0095
:100DE00061E0811113C082E00E94010382E191E081
:100DF0000E94EE022FEF89E698E12150804090405A
:100E0000E1F700C000000E94730210C082E00E945F
:100E100001038CE191E00E94EE022FEF8EE994E253
:100E2000215080409040E1F700C000007894089580
:100E3000AA1BBB1B51E107C0AA1FBB1FA617B70700
:100E400010F0A61BB70B881F991F5A95A9F780951C
:100E50009095BC01CD010895A1E21A2EAA1BBB1BDF
:100E6000FD010DC0AA1FBB1FEE1FFF1FA217B30776
:100E7000E407F50720F0A21BB30BE40BF50B661F8C
:100E8000771F881F991F1A9469F760957095809550
:100E900090959B01AC01BD01CF010895052E97FBF4
:100EA0001EF400940E94650757FD07D00E942C078E
:100EB00007FC03D04EF40C9465075095409530958F
:100EC00021953F4F4F4F5F4F0895909580957095B6
:100ED00061957F4F8F4F9F4F0895A29FB001B39FA1
:100EE000C001A39F700D811D1124911DB29F700D33
:0C0EF000811D1124911D0895F894FFCF7E
:100EFC001E0000000000000000001E0000000000AA
:100F0C00000000003130303030FFFFFFFFFFFFFFEB
:100F1C00FF20202057656C636F6D652020200054E6
:100F2C00656D703A0053746174653A001A1B1C1D90
:100F3C000C0D0E0F37383966343536653132336166
:100F4C0063303D624F6C643A004E65773A005061F5
:100F5C007373776F7264206368616E67650001005C
:100F6C000000000000010000010000000000000073
:100F7C00000000020000000002020202000020201B
:100F8C0020202020202000476F6F64007072657352
:100F9C00733A0046696E650050617373776F7264C3
:100FAC003A004E4F4E205641494C440056414C4954
:020FBC004400EF
:040000030000022ACD
:00000001FF
